{
  "address": "0x8A9B03013A9Ae73033165a961ADF15453ec66f57",
  "abi": [
    {
      "inputs": [
        {
          "internalType": "contract IUniswapV2Factory",
          "name": "_factory",
          "type": "address"
        },
        {
          "internalType": "address",
          "name": "_bar",
          "type": "address"
        },
        {
          "internalType": "address",
          "name": "_drink",
          "type": "address"
        },
        {
          "internalType": "address",
          "name": "_weth",
          "type": "address"
        }
      ],
      "stateMutability": "nonpayable",
      "type": "constructor"
    },
    {
      "anonymous": false,
      "inputs": [
        {
          "indexed": true,
          "internalType": "address",
          "name": "token",
          "type": "address"
        },
        {
          "indexed": true,
          "internalType": "address",
          "name": "bridge",
          "type": "address"
        }
      ],
      "name": "LogBridgeSet",
      "type": "event"
    },
    {
      "anonymous": false,
      "inputs": [
        {
          "indexed": true,
          "internalType": "address",
          "name": "server",
          "type": "address"
        },
        {
          "indexed": true,
          "internalType": "address",
          "name": "token0",
          "type": "address"
        },
        {
          "indexed": false,
          "internalType": "uint256",
          "name": "amount0",
          "type": "uint256"
        },
        {
          "indexed": false,
          "internalType": "uint256",
          "name": "amountSUSHI",
          "type": "uint256"
        }
      ],
      "name": "LogConvert",
      "type": "event"
    },
    {
      "anonymous": false,
      "inputs": [
        {
          "indexed": true,
          "internalType": "address",
          "name": "previousOwner",
          "type": "address"
        },
        {
          "indexed": true,
          "internalType": "address",
          "name": "newOwner",
          "type": "address"
        }
      ],
      "name": "OwnershipTransferred",
      "type": "event"
    },
    {
      "inputs": [],
      "name": "claimOwnership",
      "outputs": [],
      "stateMutability": "nonpayable",
      "type": "function"
    },
    {
      "inputs": [
        {
          "internalType": "contract IFeeSplitExtension",
          "name": "_feeSplitExtension",
          "type": "address"
        },
        {
          "internalType": "contract ISetToken",
          "name": "_setToken",
          "type": "address"
        }
      ],
      "name": "convert",
      "outputs": [],
      "stateMutability": "nonpayable",
      "type": "function"
    },
    {
      "inputs": [
        {
          "internalType": "contract IFeeSplitExtension[]",
          "name": "_feeSplitExtensions",
          "type": "address[]"
        },
        {
          "internalType": "contract ISetToken[]",
          "name": "_setTokens",
          "type": "address[]"
        }
      ],
      "name": "convertMultiple",
      "outputs": [],
      "stateMutability": "nonpayable",
      "type": "function"
    },
    {
      "inputs": [],
      "name": "owner",
      "outputs": [
        {
          "internalType": "address",
          "name": "",
          "type": "address"
        }
      ],
      "stateMutability": "view",
      "type": "function"
    },
    {
      "inputs": [],
      "name": "pendingOwner",
      "outputs": [
        {
          "internalType": "address",
          "name": "",
          "type": "address"
        }
      ],
      "stateMutability": "view",
      "type": "function"
    },
    {
      "inputs": [
        {
          "internalType": "address",
          "name": "token",
          "type": "address"
        },
        {
          "internalType": "address",
          "name": "bridge",
          "type": "address"
        }
      ],
      "name": "setBridge",
      "outputs": [],
      "stateMutability": "nonpayable",
      "type": "function"
    },
    {
      "inputs": [
        {
          "internalType": "address",
          "name": "newOwner",
          "type": "address"
        },
        {
          "internalType": "bool",
          "name": "direct",
          "type": "bool"
        },
        {
          "internalType": "bool",
          "name": "renounce",
          "type": "bool"
        }
      ],
      "name": "transferOwnership",
      "outputs": [],
      "stateMutability": "nonpayable",
      "type": "function"
    }
  ],
  "transactionHash": "0xf6503b6b7d8de45294ed049218ef81a24e8100341fa9da8749f8fcd8ade4ffee",
  "args": [
    "0xc35DADB65012eC5796536bD9864eD8773aBc74C4",
    "0x2632E6d18c52bA47B5064B63A38B878Eb0c53d84",
    "0xF3a10Fe1593e351eb93DD560eA04d1eC4Bb2739F",
    "0xd0A1E359811322d97991E03f863a0C30C2cF029C"
  ],
  "solcInputHash": "216560149d15f06b25fc2a3e9a729058",
  "bytecode": "0x61010060405234801561001157600080fd5b506040516110393803806110398339818101604052608081101561003457600080fd5b5080516020820151604080840151606090940151600080546001600160a01b0319163390811782559251949593949192917f8be0079c531659141344cd1fd0a4f28419497f9722a3daafe3b4186f6b6457e0908290a36001600160601b0319606094851b811660805292841b831660a05290831b821660c05290911b1660e05260805160601c60a05160601c60c05160601c60e05160601c610f2b61010e600039806105a552806108ad528061095b525080610568528061083852806108eb52508061087f528061090d525080610b085250610f2b6000f3fe608060405234801561001057600080fd5b506004361061007d5760003560e01c80638da5cb5b1161005b5780638da5cb5b146101845780639d22ae8c146101a8578063bd1b820c146101d6578063e30c3978146102045761007d565b8063078dfbe714610082578063303e6aa4146100ba5780634e71e0c81461017c575b600080fd5b6100b86004803603606081101561009857600080fd5b506001600160a01b0381351690602081013515159060400135151561020c565b005b6100b8600480360360408110156100d057600080fd5b8101906020810181356401000000008111156100eb57600080fd5b8201836020820111156100fd57600080fd5b8035906020019184602083028401116401000000008311171561011f57600080fd5b91939092909160208101903564010000000081111561013d57600080fd5b82018360208201111561014f57600080fd5b8035906020019184602083028401116401000000008311171561017157600080fd5b509092509050610348565b6100b8610436565b61018c6104f8565b604080516001600160a01b039092168252519081900360200190f35b6100b8600480360360408110156101be57600080fd5b506001600160a01b0381358116916020013516610507565b6100b8600480360360408110156101ec57600080fd5b506001600160a01b0381358116916020013516610698565b61018c6106f0565b6000546001600160a01b0316331461026b576040805162461bcd60e51b815260206004820181905260248201527f4f776e61626c653a2063616c6c6572206973206e6f7420746865206f776e6572604482015290519081900360640190fd5b8115610327576001600160a01b0383161515806102855750805b6102ce576040805162461bcd60e51b81526020600482015260156024820152744f776e61626c653a207a65726f206164647265737360581b604482015290519081900360640190fd5b600080546040516001600160a01b03808716939216917f8be0079c531659141344cd1fd0a4f28419497f9722a3daafe3b4186f6b6457e091a3600080546001600160a01b0319166001600160a01b038516179055610343565b600180546001600160a01b0319166001600160a01b0385161790555b505050565b333214610392576040805162461bcd60e51b81526020600482015260136024820152724d616b65723a204d7573742075736520454f4160681b604482015290519081900360640190fd5b8281146103dc576040805162461bcd60e51b815260206004820152601360248201527209aeae6e840c4ca40e6c2daca40d8cadccee8d606b1b604482015290519081900360640190fd5b60005b8181101561042f576104278585838181106103f657fe5b905060200201356001600160a01b031684848481811061041257fe5b905060200201356001600160a01b03166106ff565b6001016103df565b5050505050565b6001546001600160a01b0316338114610496576040805162461bcd60e51b815260206004820181905260248201527f4f776e61626c653a2063616c6c657220213d2070656e64696e67206f776e6572604482015290519081900360640190fd5b600080546040516001600160a01b03808516939216917f8be0079c531659141344cd1fd0a4f28419497f9722a3daafe3b4186f6b6457e091a3600080546001600160a01b039092166001600160a01b0319928316179055600180549091169055565b6000546001600160a01b031681565b6000546001600160a01b03163314610566576040805162461bcd60e51b815260206004820181905260248201527f4f776e61626c653a2063616c6c6572206973206e6f7420746865206f776e6572604482015290519081900360640190fd5b7f00000000000000000000000000000000000000000000000000000000000000006001600160a01b0316826001600160a01b0316141580156105da57507f00000000000000000000000000000000000000000000000000000000000000006001600160a01b0316826001600160a01b031614155b80156105f85750806001600160a01b0316826001600160a01b031614155b610641576040805162461bcd60e51b81526020600482015260156024820152744d616b65723a20496e76616c69642062726964676560581b604482015290519081900360640190fd5b6001600160a01b0382811660008181526002602052604080822080546001600160a01b0319169486169485179055517f2e103aa707acc565f9a1547341914802b2bfe977fd79c595209f248ae4b006139190a35050565b3332146106e2576040805162461bcd60e51b81526020600482015260136024820152724d616b65723a204d7573742075736520454f4160681b604482015290519081900360640190fd5b6106ec82826106ff565b5050565b6001546001600160a01b031681565b816001600160a01b031663b969b4bf826040518263ffffffff1660e01b815260040180826001600160a01b03168152602001915050600060405180830381600087803b15801561074e57600080fd5b505af1158015610762573d6000803e3d6000fd5b5050604080516370a0823160e01b81523060048201529051849350600092506001600160a01b038416916370a08231916024808301926020929190829003018186803b1580156107b157600080fd5b505afa1580156107c5573d6000803e3d6000fd5b505050506040513d60208110156107db57600080fd5b505190506001600160a01b038216337f9a2b201cb3043b4d299009f7ad0fb8125820088a7c5033fcb41fce87939aaf2d836108168682610834565b6040805192835260208301919091528051918290030190a350505050565b60007f00000000000000000000000000000000000000000000000000000000000000006001600160a01b0316836001600160a01b031614156108ab576108a46001600160a01b0384167f0000000000000000000000000000000000000000000000000000000000000000846109a0565b508061099a565b7f00000000000000000000000000000000000000000000000000000000000000006001600160a01b0316836001600160a01b0316141561093857610931837f0000000000000000000000000000000000000000000000000000000000000000847f0000000000000000000000000000000000000000000000000000000000000000610b03565b905061099a565b6001600160a01b03808416600090815260026020526040902054168061097b57507f00000000000000000000000000000000000000000000000000000000000000005b600061098985838630610b03565b90506109958282610834565b925050505b92915050565b604080516001600160a01b038481166024830152604480830185905283518084039091018152606490920183526020820180516001600160e01b031663a9059cbb60e01b178152925182516000946060949389169392918291908083835b60208310610a1d5780518252601f1990920191602091820191016109fe565b6001836020036101000a0380198251168184511680821785525050505050509050019150506000604051808303816000865af19150503d8060008114610a7f576040519150601f19603f3d011682016040523d82523d6000602084013e610a84565b606091505b5091509150818015610ab2575080511580610ab25750808060200190516020811015610aaf57600080fd5b50515b61042f576040805162461bcd60e51b815260206004820152601a60248201527f5361666545524332303a205472616e73666572206661696c6564000000000000604482015290519081900360640190fd5b6000807f00000000000000000000000000000000000000000000000000000000000000006001600160a01b031663e6a4390587876040518363ffffffff1660e01b815260040180836001600160a01b03168152602001826001600160a01b031681526020019250505060206040518083038186803b158015610b8457600080fd5b505afa158015610b98573d6000803e3d6000fd5b505050506040513d6020811015610bae57600080fd5b505190506001600160a01b038116610c0d576040805162461bcd60e51b815260206004820152601d60248201527f42657665726167654d616b65723a2043616e6e6f7420636f6e76657274000000604482015290519081900360640190fd5b600080826001600160a01b0316630902f1ac6040518163ffffffff1660e01b815260040160606040518083038186803b158015610c4957600080fd5b505afa158015610c5d573d6000803e3d6000fd5b505050506040513d6060811015610c7357600080fd5b5080516020909101516dffffffffffffffffffffffffffff91821693501690506000610ca1876103e5610e3f565b9050886001600160a01b0316886001600160a01b03161115610d7d57610cd381610ccd856103e8610e3f565b90610ea4565b610cdd8284610e3f565b81610ce457fe5b049450610cfb6001600160a01b038a1685896109a0565b6040805163022c0d9f60e01b8152600060048201819052602482018890526001600160a01b038981166044840152608060648401526084830182905292519287169263022c0d9f9260c480820193929182900301818387803b158015610d6057600080fd5b505af1158015610d74573d6000803e3d6000fd5b50505050610e33565b610d8d81610ccd846103e8610e3f565b610d978285610e3f565b81610d9e57fe5b049450610db56001600160a01b038a1685896109a0565b6040805163022c0d9f60e01b8152600481018790526000602482018190526001600160a01b038981166044840152608060648401526084830182905292519287169263022c0d9f9260c480820193929182900301818387803b158015610e1a57600080fd5b505af1158015610e2e573d6000803e3d6000fd5b505050505b50505050949350505050565b6000811580610e5a57505080820282828281610e5757fe5b04145b61099a576040805162461bcd60e51b8152602060048201526016602482015275536166654d6174683a204d756c204f766572666c6f7760501b604482015290519081900360640190fd5b8181018181101561099a576040805162461bcd60e51b8152602060048201526016602482015275536166654d6174683a20416464204f766572666c6f7760501b604482015290519081900360640190fdfea26469706673582212201621eddd874f3b5957056c4a42ed7eed2e4ddacc225a87504f8e6faeddd1a18c64736f6c634300060c0033",
  "devdoc": {
    "kind": "dev",
    "methods": {},
    "version": 1
  },
  "userdoc": {
    "kind": "user",
    "methods": {},
    "version": 1
  },
  "storageLayout": {
    "storage": [
      {
        "astId": 442,
        "contract": "contracts/BeverageMaker.sol:BeverageMaker",
        "label": "owner",
        "offset": 0,
        "slot": "0",
        "type": "t_address"
      },
      {
        "astId": 444,
        "contract": "contracts/BeverageMaker.sol:BeverageMaker",
        "label": "pendingOwner",
        "offset": 0,
        "slot": "1",
        "type": "t_address"
      },
      {
        "astId": 35,
        "contract": "contracts/BeverageMaker.sol:BeverageMaker",
        "label": "_bridges",
        "offset": 0,
        "slot": "2",
        "type": "t_mapping(t_address,t_address)"
      }
    ],
    "types": {
      "t_address": {
        "encoding": "inplace",
        "label": "address",
        "numberOfBytes": "20"
      },
      "t_mapping(t_address,t_address)": {
        "encoding": "mapping",
        "key": "t_address",
        "label": "mapping(address => address)",
        "numberOfBytes": "32",
        "value": "t_address"
      }
    }
  }
}